{
  "contractName": "SupplyChain",
  "abi": [
    {
      "inputs": [],
      "payable": false,
      "stateMutability": "nonpayable",
      "type": "constructor"
    },
    {
      "constant": true,
      "inputs": [
        {
          "internalType": "uint256",
          "name": "",
          "type": "uint256"
        }
      ],
      "name": "DIS",
      "outputs": [
        {
          "internalType": "address",
          "name": "addr",
          "type": "address"
        },
        {
          "internalType": "uint256",
          "name": "id",
          "type": "uint256"
        },
        {
          "internalType": "string",
          "name": "name",
          "type": "string"
        },
        {
          "internalType": "string",
          "name": "place",
          "type": "string"
        }
      ],
      "payable": false,
      "stateMutability": "view",
      "type": "function"
    },
    {
      "constant": true,
      "inputs": [
        {
          "internalType": "uint256",
          "name": "",
          "type": "uint256"
        }
      ],
      "name": "MAN",
      "outputs": [
        {
          "internalType": "address",
          "name": "addr",
          "type": "address"
        },
        {
          "internalType": "uint256",
          "name": "id",
          "type": "uint256"
        },
        {
          "internalType": "string",
          "name": "name",
          "type": "string"
        },
        {
          "internalType": "string",
          "name": "place",
          "type": "string"
        }
      ],
      "payable": false,
      "stateMutability": "view",
      "type": "function"
    },
    {
      "constant": true,
      "inputs": [
        {
          "internalType": "uint256",
          "name": "",
          "type": "uint256"
        }
      ],
      "name": "MedicineStock",
      "outputs": [
        {
          "internalType": "uint256",
          "name": "id",
          "type": "uint256"
        },
        {
          "internalType": "string",
          "name": "name",
          "type": "string"
        },
        {
          "internalType": "string",
          "name": "description",
          "type": "string"
        },
        {
          "internalType": "uint256",
          "name": "RMSid",
          "type": "uint256"
        },
        {
          "internalType": "uint256",
          "name": "MANid",
          "type": "uint256"
        },
        {
          "internalType": "uint256",
          "name": "DISid",
          "type": "uint256"
        },
        {
          "internalType": "uint256",
          "name": "RETid",
          "type": "uint256"
        },
        {
          "internalType": "enum SupplyChain.STAGE",
          "name": "stage",
          "type": "uint8"
        },
        {
          "internalType": "uint256",
          "name": "productionDate",
          "type": "uint256"
        },
        {
          "internalType": "uint256",
          "name": "expiryDate",
          "type": "uint256"
        }
      ],
      "payable": false,
      "stateMutability": "view",
      "type": "function"
    },
    {
      "constant": true,
      "inputs": [],
      "name": "Owner",
      "outputs": [
        {
          "internalType": "address",
          "name": "",
          "type": "address"
        }
      ],
      "payable": false,
      "stateMutability": "view",
      "type": "function"
    },
    {
      "constant": true,
      "inputs": [
        {
          "internalType": "uint256",
          "name": "",
          "type": "uint256"
        }
      ],
      "name": "RET",
      "outputs": [
        {
          "internalType": "address",
          "name": "addr",
          "type": "address"
        },
        {
          "internalType": "uint256",
          "name": "id",
          "type": "uint256"
        },
        {
          "internalType": "string",
          "name": "name",
          "type": "string"
        },
        {
          "internalType": "string",
          "name": "place",
          "type": "string"
        }
      ],
      "payable": false,
      "stateMutability": "view",
      "type": "function"
    },
    {
      "constant": true,
      "inputs": [
        {
          "internalType": "uint256",
          "name": "",
          "type": "uint256"
        }
      ],
      "name": "RMS",
      "outputs": [
        {
          "internalType": "address",
          "name": "addr",
          "type": "address"
        },
        {
          "internalType": "uint256",
          "name": "id",
          "type": "uint256"
        },
        {
          "internalType": "string",
          "name": "name",
          "type": "string"
        },
        {
          "internalType": "string",
          "name": "place",
          "type": "string"
        }
      ],
      "payable": false,
      "stateMutability": "view",
      "type": "function"
    },
    {
      "constant": true,
      "inputs": [],
      "name": "disCtr",
      "outputs": [
        {
          "internalType": "uint256",
          "name": "",
          "type": "uint256"
        }
      ],
      "payable": false,
      "stateMutability": "view",
      "type": "function"
    },
    {
      "constant": true,
      "inputs": [],
      "name": "manCtr",
      "outputs": [
        {
          "internalType": "uint256",
          "name": "",
          "type": "uint256"
        }
      ],
      "payable": false,
      "stateMutability": "view",
      "type": "function"
    },
    {
      "constant": true,
      "inputs": [],
      "name": "medicineCtr",
      "outputs": [
        {
          "internalType": "uint256",
          "name": "",
          "type": "uint256"
        }
      ],
      "payable": false,
      "stateMutability": "view",
      "type": "function"
    },
    {
      "constant": true,
      "inputs": [],
      "name": "retCtr",
      "outputs": [
        {
          "internalType": "uint256",
          "name": "",
          "type": "uint256"
        }
      ],
      "payable": false,
      "stateMutability": "view",
      "type": "function"
    },
    {
      "constant": true,
      "inputs": [],
      "name": "rmsCtr",
      "outputs": [
        {
          "internalType": "uint256",
          "name": "",
          "type": "uint256"
        }
      ],
      "payable": false,
      "stateMutability": "view",
      "type": "function"
    },
    {
      "constant": true,
      "inputs": [
        {
          "internalType": "uint256",
          "name": "_medicineID",
          "type": "uint256"
        }
      ],
      "name": "showStage",
      "outputs": [
        {
          "internalType": "string",
          "name": "",
          "type": "string"
        }
      ],
      "payable": false,
      "stateMutability": "view",
      "type": "function"
    },
    {
      "constant": false,
      "inputs": [
        {
          "internalType": "address",
          "name": "_address",
          "type": "address"
        },
        {
          "internalType": "string",
          "name": "_name",
          "type": "string"
        },
        {
          "internalType": "string",
          "name": "_place",
          "type": "string"
        }
      ],
      "name": "addRMS",
      "outputs": [],
      "payable": false,
      "stateMutability": "nonpayable",
      "type": "function"
    },
    {
      "constant": false,
      "inputs": [
        {
          "internalType": "address",
          "name": "_address",
          "type": "address"
        },
        {
          "internalType": "string",
          "name": "_name",
          "type": "string"
        },
        {
          "internalType": "string",
          "name": "_place",
          "type": "string"
        }
      ],
      "name": "addManufacturer",
      "outputs": [],
      "payable": false,
      "stateMutability": "nonpayable",
      "type": "function"
    },
    {
      "constant": false,
      "inputs": [
        {
          "internalType": "address",
          "name": "_address",
          "type": "address"
        },
        {
          "internalType": "string",
          "name": "_name",
          "type": "string"
        },
        {
          "internalType": "string",
          "name": "_place",
          "type": "string"
        }
      ],
      "name": "addDistributor",
      "outputs": [],
      "payable": false,
      "stateMutability": "nonpayable",
      "type": "function"
    },
    {
      "constant": false,
      "inputs": [
        {
          "internalType": "address",
          "name": "_address",
          "type": "address"
        },
        {
          "internalType": "string",
          "name": "_name",
          "type": "string"
        },
        {
          "internalType": "string",
          "name": "_place",
          "type": "string"
        }
      ],
      "name": "addRetailer",
      "outputs": [],
      "payable": false,
      "stateMutability": "nonpayable",
      "type": "function"
    },
    {
      "constant": false,
      "inputs": [
        {
          "internalType": "uint256",
          "name": "_medicineID",
          "type": "uint256"
        }
      ],
      "name": "RMSsupply",
      "outputs": [],
      "payable": false,
      "stateMutability": "nonpayable",
      "type": "function"
    },
    {
      "constant": false,
      "inputs": [
        {
          "internalType": "uint256",
          "name": "_medicineID",
          "type": "uint256"
        },
        {
          "internalType": "uint256",
          "name": "_expdate",
          "type": "uint256"
        }
      ],
      "name": "Manufacturing",
      "outputs": [],
      "payable": false,
      "stateMutability": "nonpayable",
      "type": "function"
    },
    {
      "constant": false,
      "inputs": [
        {
          "internalType": "uint256",
          "name": "_medicineID",
          "type": "uint256"
        }
      ],
      "name": "Distribute",
      "outputs": [],
      "payable": false,
      "stateMutability": "nonpayable",
      "type": "function"
    },
    {
      "constant": false,
      "inputs": [
        {
          "internalType": "uint256",
          "name": "_medicineID",
          "type": "uint256"
        }
      ],
      "name": "Retail",
      "outputs": [],
      "payable": false,
      "stateMutability": "nonpayable",
      "type": "function"
    },
    {
      "constant": false,
      "inputs": [
        {
          "internalType": "uint256",
          "name": "_medicineID",
          "type": "uint256"
        }
      ],
      "name": "sold",
      "outputs": [],
      "payable": false,
      "stateMutability": "nonpayable",
      "type": "function"
    },
    {
      "constant": false,
      "inputs": [
        {
          "internalType": "string",
          "name": "_name",
          "type": "string"
        },
        {
          "internalType": "string",
          "name": "_description",
          "type": "string"
        }
      ],
      "name": "addMedicine",
      "outputs": [],
      "payable": false,
      "stateMutability": "nonpayable",
      "type": "function"
    }
  ],
  "bytecode": "0x60806040526000600155600060025560006003556000600455600060055534801561002957600080fd5b50336000806101000a81548173ffffffffffffffffffffffffffffffffffffffff021916908373ffffffffffffffffffffffffffffffffffffffff160217905550612c04806100796000396000f3fe608060405234801561001057600080fd5b50600436106101425760003560e01c8063857ddb04116100b8578063b4a99a4e1161007c578063b4a99a4e14610c63578063cc40306914610cad578063dd28639814610dfa578063e101a2e014610e18578063eb1a06b514610ebf578063eef5cb401461101857610142565b8063857ddb041461092557806386c1827514610a975780638f4183cc14610ac55780639c03facb14610c17578063a95f29d914610c4557610142565b80633d753a1c1161010a5780633d753a1c146105ce578063438e9c4d146105fc5780634def474a1461061a57806359bf286f146106485780636a992c9f146107955780637e43d94d1461090757610142565b8063254c0493146101475780632a4af4401461017f5780632b0187ac146102f15780632b70b08d1461043e5780632bdb2e6b146105b0575b600080fd5b61017d6004803603604081101561015d57600080fd5b810190808035906020019092919080359060200190929190505050611165565b005b6102ef6004803603606081101561019557600080fd5b81019080803573ffffffffffffffffffffffffffffffffffffffff169060200190929190803590602001906401000000008111156101d257600080fd5b8201836020820111156101e457600080fd5b8035906020019184600183028401116401000000008311171561020657600080fd5b91908080601f016020809104026020016040519081016040528093929190818152602001838380828437600081840152601f19601f8201169050808301925050505050505091929192908035906020019064010000000081111561026957600080fd5b82018360208201111561027b57600080fd5b8035906020019184600183028401116401000000008311171561029d57600080fd5b91908080601f016020809104026020016040519081016040528093929190818152602001838380828437600081840152601f19601f82011690508083019250505050505050919291929050505061127a565b005b61031d6004803603602081101561030757600080fd5b81019080803590602001909291905050506113e7565b604051808573ffffffffffffffffffffffffffffffffffffffff1673ffffffffffffffffffffffffffffffffffffffff1681526020018481526020018060200180602001838103835285818151815260200191508051906020019080838360005b8381101561039957808201518184015260208101905061037e565b50505050905090810190601f1680156103c65780820380516001836020036101000a031916815260200191505b50838103825284818151815260200191508051906020019080838360005b838110156103ff5780820151818401526020810190506103e4565b50505050905090810190601f16801561042c5780820380516001836020036101000a031916815260200191505b50965050505050505060405180910390f35b6105ae6004803603606081101561045457600080fd5b81019080803573ffffffffffffffffffffffffffffffffffffffff1690602001909291908035906020019064010000000081111561049157600080fd5b8201836020820111156104a357600080fd5b803590602001918460018302840111640100000000831117156104c557600080fd5b91908080601f016020809104026020016040519081016040528093929190818152602001838380828437600081840152601f19601f8201169050808301925050505050505091929192908035906020019064010000000081111561052857600080fd5b82018360208201111561053a57600080fd5b8035906020019184600183028401116401000000008311171561055c57600080fd5b91908080601f016020809104026020016040519081016040528093929190818152602001838380828437600081840152601f19601f820116905080830192505050505050509192919290505050611567565b005b6105b86116d4565b6040518082815260200191505060405180910390f35b6105fa600480360360208110156105e457600080fd5b81019080803590602001909291905050506116da565b005b6106046117ac565b6040518082815260200191505060405180910390f35b6106466004803603602081101561063057600080fd5b81019080803590602001909291905050506117b2565b005b6106746004803603602081101561065e57600080fd5b8101908080359060200190929190505050611884565b604051808573ffffffffffffffffffffffffffffffffffffffff1673ffffffffffffffffffffffffffffffffffffffff1681526020018481526020018060200180602001838103835285818151815260200191508051906020019080838360005b838110156106f05780820151818401526020810190506106d5565b50505050905090810190601f16801561071d5780820380516001836020036101000a031916815260200191505b50838103825284818151815260200191508051906020019080838360005b8381101561075657808201518184015260208101905061073b565b50505050905090810190601f1680156107835780820380516001836020036101000a031916815260200191505b50965050505050505060405180910390f35b610905600480360360608110156107ab57600080fd5b81019080803573ffffffffffffffffffffffffffffffffffffffff169060200190929190803590602001906401000000008111156107e857600080fd5b8201836020820111156107fa57600080fd5b8035906020019184600183028401116401000000008311171561081c57600080fd5b91908080601f016020809104026020016040519081016040528093929190818152602001838380828437600081840152601f19601f8201169050808301925050505050505091929192908035906020019064010000000081111561087f57600080fd5b82018360208201111561089157600080fd5b803590602001918460018302840111640100000000831117156108b357600080fd5b91908080601f016020809104026020016040519081016040528093929190818152602001838380828437600081840152601f19601f820116905080830192505050505050509192919290505050611a04565b005b61090f611b71565b6040518082815260200191505060405180910390f35b610a956004803603606081101561093b57600080fd5b81019080803573ffffffffffffffffffffffffffffffffffffffff1690602001909291908035906020019064010000000081111561097857600080fd5b82018360208201111561098a57600080fd5b803590602001918460018302840111640100000000831117156109ac57600080fd5b91908080601f016020809104026020016040519081016040528093929190818152602001838380828437600081840152601f19601f82011690508083019250505050505050919291929080359060200190640100000000811115610a0f57600080fd5b820183602082011115610a2157600080fd5b80359060200191846001830284011164010000000083111715610a4357600080fd5b91908080601f016020809104026020016040519081016040528093929190818152602001838380828437600081840152601f19601f820116905080830192505050505050509192919290505050611b77565b005b610ac360048036036020811015610aad57600080fd5b8101908080359060200190929190505050611ce4565b005b610c1560048036036040811015610adb57600080fd5b8101908080359060200190640100000000811115610af857600080fd5b820183602082011115610b0a57600080fd5b80359060200191846001830284011164010000000083111715610b2c57600080fd5b91908080601f016020809104026020016040519081016040528093929190818152602001838380828437600081840152601f19601f82011690508083019250505050505050919291929080359060200190640100000000811115610b8f57600080fd5b820183602082011115610ba157600080fd5b80359060200191846001830284011164010000000083111715610bc357600080fd5b91908080601f016020809104026020016040519081016040528093929190818152602001838380828437600081840152601f19601f820116905080830192505050505050509192919290505050611db6565b005b610c4360048036036020811015610c2d57600080fd5b8101908080359060200190929190505050611f7b565b005b610c4d612054565b6040518082815260200191505060405180910390f35b610c6b61205a565b604051808273ffffffffffffffffffffffffffffffffffffffff1673ffffffffffffffffffffffffffffffffffffffff16815260200191505060405180910390f35b610cd960048036036020811015610cc357600080fd5b810190808035906020019092919050505061207f565b604051808573ffffffffffffffffffffffffffffffffffffffff1673ffffffffffffffffffffffffffffffffffffffff1681526020018481526020018060200180602001838103835285818151815260200191508051906020019080838360005b83811015610d55578082015181840152602081019050610d3a565b50505050905090810190601f168015610d825780820380516001836020036101000a031916815260200191505b50838103825284818151815260200191508051906020019080838360005b83811015610dbb578082015181840152602081019050610da0565b50505050905090810190601f168015610de85780820380516001836020036101000a031916815260200191505b50965050505050505060405180910390f35b610e026121ff565b6040518082815260200191505060405180910390f35b610e4460048036036020811015610e2e57600080fd5b8101908080359060200190929190505050612205565b6040518080602001828103825283818151815260200191508051906020019080838360005b83811015610e84578082015181840152602081019050610e69565b50505050905090810190601f168015610eb15780820380516001836020036101000a031916815260200191505b509250505060405180910390f35b610eeb60048036036020811015610ed557600080fd5b8101908080359060200190929190505050612515565b604051808b815260200180602001806020018a8152602001898152602001888152602001878152602001866005811115610f2157fe5b60ff16815260200185815260200184815260200183810383528c818151815260200191508051906020019080838360005b83811015610f6d578082015181840152602081019050610f52565b50505050905090810190601f168015610f9a5780820380516001836020036101000a031916815260200191505b5083810382528b818151815260200191508051906020019080838360005b83811015610fd3578082015181840152602081019050610fb8565b50505050905090810190601f1680156110005780820380516001836020036101000a031916815260200191505b509c5050505050505050505050505060405180910390f35b6110446004803603602081101561102e57600080fd5b81019080803590602001909291905050506126a6565b604051808573ffffffffffffffffffffffffffffffffffffffff1673ffffffffffffffffffffffffffffffffffffffff1681526020018481526020018060200180602001838103835285818151815260200191508051906020019080838360005b838110156110c05780820151818401526020810190506110a5565b50505050905090810190601f1680156110ed5780820380516001836020036101000a031916815260200191505b50838103825284818151815260200191508051906020019080838360005b8381101561112657808201518184015260208101905061110b565b50505050905090810190601f1680156111535780820380516001836020036101000a031916815260200191505b50965050505050505060405180910390f35b60008211801561117757506001548211155b61118057600080fd5b600061118b33612826565b90506000811161119a57600080fd5b600160058111156111a757fe5b6006600085815260200190815260200160002060070160009054906101000a900460ff1660058111156111d657fe5b146111e057600080fd5b4282116111ec57600080fd5b80600660008581526020019081526020016000206004018190555060026006600085815260200190815260200160002060070160006101000a81548160ff0219169083600581111561123a57fe5b0217905550426006600085815260200190815260200160002060080181905550816006600085815260200190815260200160002060090181905550505050565b6000809054906101000a900473ffffffffffffffffffffffffffffffffffffffff1673ffffffffffffffffffffffffffffffffffffffff163373ffffffffffffffffffffffffffffffffffffffff16146112d357600080fd5b600060045411156112f45760006112e9846128e7565b146112f357600080fd5b5b60046000815480929190600101919050555060405180608001604052808473ffffffffffffffffffffffffffffffffffffffff16815260200160045481526020018381526020018281525060096000600454815260200190815260200160002060008201518160000160006101000a81548173ffffffffffffffffffffffffffffffffffffffff021916908373ffffffffffffffffffffffffffffffffffffffff1602179055506020820151816001015560408201518160020190805190602001906113c1929190612b2a565b5060608201518160030190805190602001906113de929190612b2a565b50905050505050565b60096020528060005260406000206000915090508060000160009054906101000a900473ffffffffffffffffffffffffffffffffffffffff1690806001015490806002018054600181600116156101000203166002900480601f0160208091040260200160405190810160405280929190818152602001828054600181600116156101000203166002900480156114bf5780601f10611494576101008083540402835291602001916114bf565b820191906000526020600020905b8154815290600101906020018083116114a257829003601f168201915b505050505090806003018054600181600116156101000203166002900480601f01602080910402602001604051908101604052809291908181526020018280546001816001161561010002031660029004801561155d5780601f106115325761010080835404028352916020019161155d565b820191906000526020600020905b81548152906001019060200180831161154057829003601f168201915b5050505050905084565b6000809054906101000a900473ffffffffffffffffffffffffffffffffffffffff1673ffffffffffffffffffffffffffffffffffffffff163373ffffffffffffffffffffffffffffffffffffffff16146115c057600080fd5b600060025411156115e15760006115d6846129a8565b146115e057600080fd5b5b60026000815480929190600101919050555060405180608001604052808473ffffffffffffffffffffffffffffffffffffffff16815260200160025481526020018381526020018281525060076000600254815260200190815260200160002060008201518160000160006101000a81548173ffffffffffffffffffffffffffffffffffffffff021916908373ffffffffffffffffffffffffffffffffffffffff1602179055506020820151816001015560408201518160020190805190602001906116ae929190612b2a565b5060608201518160030190805190602001906116cb929190612b2a565b50905050505050565b60045481565b6000811180156116ec57506001548111155b6116f557600080fd5b600061170033612a69565b90506000811161170f57600080fd5b6003600581111561171c57fe5b6006600084815260200190815260200160002060070160009054906101000a900460ff16600581111561174b57fe5b1461175557600080fd5b80600660008481526020019081526020016000206006018190555060046006600084815260200190815260200160002060070160006101000a81548160ff021916908360058111156117a357fe5b02179055505050565b60035481565b6000811180156117c457506001548111155b6117cd57600080fd5b60006117d8336128e7565b9050600081116117e757600080fd5b600260058111156117f457fe5b6006600084815260200190815260200160002060070160009054906101000a900460ff16600581111561182357fe5b1461182d57600080fd5b80600660008481526020019081526020016000206005018190555060036006600084815260200190815260200160002060070160006101000a81548160ff0219169083600581111561187b57fe5b02179055505050565b600a6020528060005260406000206000915090508060000160009054906101000a900473ffffffffffffffffffffffffffffffffffffffff1690806001015490806002018054600181600116156101000203166002900480601f01602080910402602001604051908101604052809291908181526020018280546001816001161561010002031660029004801561195c5780601f106119315761010080835404028352916020019161195c565b820191906000526020600020905b81548152906001019060200180831161193f57829003601f168201915b505050505090806003018054600181600116156101000203166002900480601f0160208091040260200160405190810160405280929190818152602001828054600181600116156101000203166002900480156119fa5780601f106119cf576101008083540402835291602001916119fa565b820191906000526020600020905b8154815290600101906020018083116119dd57829003601f168201915b5050505050905084565b6000809054906101000a900473ffffffffffffffffffffffffffffffffffffffff1673ffffffffffffffffffffffffffffffffffffffff163373ffffffffffffffffffffffffffffffffffffffff1614611a5d57600080fd5b60006003541115611a7e576000611a7384612826565b14611a7d57600080fd5b5b60036000815480929190600101919050555060405180608001604052808473ffffffffffffffffffffffffffffffffffffffff16815260200160035481526020018381526020018281525060086000600354815260200190815260200160002060008201518160000160006101000a81548173ffffffffffffffffffffffffffffffffffffffff021916908373ffffffffffffffffffffffffffffffffffffffff160217905550602082015181600101556040820151816002019080519060200190611b4b929190612b2a565b506060820151816003019080519060200190611b68929190612b2a565b50905050505050565b60055481565b6000809054906101000a900473ffffffffffffffffffffffffffffffffffffffff1673ffffffffffffffffffffffffffffffffffffffff163373ffffffffffffffffffffffffffffffffffffffff1614611bd057600080fd5b60006005541115611bf1576000611be684612a69565b14611bf057600080fd5b5b60056000815480929190600101919050555060405180608001604052808473ffffffffffffffffffffffffffffffffffffffff168152602001600554815260200183815260200182815250600a6000600554815260200190815260200160002060008201518160000160006101000a81548173ffffffffffffffffffffffffffffffffffffffff021916908373ffffffffffffffffffffffffffffffffffffffff160217905550602082015181600101556040820151816002019080519060200190611cbe929190612b2a565b506060820151816003019080519060200190611cdb929190612b2a565b50905050505050565b600081118015611cf657506001548111155b611cff57600080fd5b6000611d0a336129a8565b905060008111611d1957600080fd5b60006005811115611d2657fe5b6006600084815260200190815260200160002060070160009054906101000a900460ff166005811115611d5557fe5b14611d5f57600080fd5b80600660008481526020019081526020016000206003018190555060016006600084815260200190815260200160002060070160006101000a81548160ff02191690836005811115611dad57fe5b02179055505050565b6000809054906101000a900473ffffffffffffffffffffffffffffffffffffffff1673ffffffffffffffffffffffffffffffffffffffff163373ffffffffffffffffffffffffffffffffffffffff1614611e0f57600080fd5b6000600254118015611e2357506000600354115b8015611e3157506000600454115b8015611e3f57506000600554115b611e4857600080fd5b60016000815480929190600101919050555060405180610140016040528060015481526020018381526020018281526020016000815260200160008152602001600081526020016000815260200160006005811115611ea357fe5b8152602001600081526020016000815250600660006001548152602001908152602001600020600082015181600001556020820151816001019080519060200190611eef929190612b2a565b506040820151816002019080519060200190611f0c929190612b2a565b50606082015181600301556080820151816004015560a0820151816005015560c0820151816006015560e08201518160070160006101000a81548160ff02191690836005811115611f5957fe5b0217905550610100820151816008015561012082015181600901559050505050565b600081118015611f8d57506001548111155b611f9657600080fd5b6000611fa133612a69565b905060008111611fb057600080fd5b60066000838152602001908152602001600020600601548114611fd257600080fd5b60046005811115611fdf57fe5b6006600084815260200190815260200160002060070160009054906101000a900460ff16600581111561200e57fe5b1461201857600080fd5b60056006600084815260200190815260200160002060070160006101000a81548160ff0219169083600581111561204b57fe5b02179055505050565b60015481565b6000809054906101000a900473ffffffffffffffffffffffffffffffffffffffff1681565b60086020528060005260406000206000915090508060000160009054906101000a900473ffffffffffffffffffffffffffffffffffffffff1690806001015490806002018054600181600116156101000203166002900480601f0160208091040260200160405190810160405280929190818152602001828054600181600116156101000203166002900480156121575780601f1061212c57610100808354040283529160200191612157565b820191906000526020600020905b81548152906001019060200180831161213a57829003601f168201915b505050505090806003018054600181600116156101000203166002900480601f0160208091040260200160405190810160405280929190818152602001828054600181600116156101000203166002900480156121f55780601f106121ca576101008083540402835291602001916121f5565b820191906000526020600020905b8154815290600101906020018083116121d857829003601f168201915b5050505050905084565b60025481565b606060006001541161221657600080fd5b6000600581111561222357fe5b6006600084815260200190815260200160002060070160009054906101000a900460ff16600581111561225257fe5b1415612295576040518060400160405280601081526020017f4d65646963696e65204f726465726564000000000000000000000000000000008152509050612510565b600160058111156122a257fe5b6006600084815260200190815260200160002060070160009054906101000a900460ff1660058111156122d157fe5b1415612314576040518060400160405280601981526020017f526177204d6174657269616c20537570706c79205374616765000000000000008152509050612510565b6002600581111561232157fe5b6006600084815260200190815260200160002060070160009054906101000a900460ff16600581111561235057fe5b1415612393576040518060400160405280601381526020017f4d616e75666163747572696e67205374616765000000000000000000000000008152509050612510565b600360058111156123a057fe5b6006600084815260200190815260200160002060070160009054906101000a900460ff1660058111156123cf57fe5b1415612412576040518060400160405280601281526020017f446973747269627574696f6e20537461676500000000000000000000000000008152509050612510565b6004600581111561241f57fe5b6006600084815260200190815260200160002060070160009054906101000a900460ff16600581111561244e57fe5b1415612491576040518060400160405280600c81526020017f52657461696c20537461676500000000000000000000000000000000000000008152509050612510565b60058081111561249d57fe5b6006600084815260200190815260200160002060070160009054906101000a900460ff1660058111156124cc57fe5b141561250f576040518060400160405280600d81526020017f4d65646963696e6520536f6c64000000000000000000000000000000000000008152509050612510565b5b919050565b6006602052806000526040600020600091509050806000015490806001018054600181600116156101000203166002900480601f0160208091040260200160405190810160405280929190818152602001828054600181600116156101000203166002900480156125c75780601f1061259c576101008083540402835291602001916125c7565b820191906000526020600020905b8154815290600101906020018083116125aa57829003601f168201915b505050505090806002018054600181600116156101000203166002900480601f0160208091040260200160405190810160405280929190818152602001828054600181600116156101000203166002900480156126655780601f1061263a57610100808354040283529160200191612665565b820191906000526020600020905b81548152906001019060200180831161264857829003601f168201915b5050505050908060030154908060040154908060050154908060060154908060070160009054906101000a900460ff1690806008015490806009015490508a565b60076020528060005260406000206000915090508060000160009054906101000a900473ffffffffffffffffffffffffffffffffffffffff1690806001015490806002018054600181600116156101000203166002900480601f01602080910402602001604051908101604052809291908181526020018280546001816001161561010002031660029004801561277e5780601f106127535761010080835404028352916020019161277e565b820191906000526020600020905b81548152906001019060200180831161276157829003601f168201915b505050505090806003018054600181600116156101000203166002900480601f01602080910402602001604051908101604052809291908181526020018280546001816001161561010002031660029004801561281c5780601f106127f15761010080835404028352916020019161281c565b820191906000526020600020905b8154815290600101906020018083116127ff57829003601f168201915b5050505050905084565b6000806003541161283657600080fd5b6000600190505b60035481116128dc578273ffffffffffffffffffffffffffffffffffffffff166008600083815260200190815260200160002060000160009054906101000a900473ffffffffffffffffffffffffffffffffffffffff1673ffffffffffffffffffffffffffffffffffffffff1614156128cf5760086000828152602001908152602001600020600101549150506128e2565b808060010191505061283d565b50600090505b919050565b600080600454116128f757600080fd5b6000600190505b600454811161299d578273ffffffffffffffffffffffffffffffffffffffff166009600083815260200190815260200160002060000160009054906101000a900473ffffffffffffffffffffffffffffffffffffffff1673ffffffffffffffffffffffffffffffffffffffff1614156129905760096000828152602001908152602001600020600101549150506129a3565b80806001019150506128fe565b50600090505b919050565b600080600254116129b857600080fd5b6000600190505b6002548111612a5e578273ffffffffffffffffffffffffffffffffffffffff166007600083815260200190815260200160002060000160009054906101000a900473ffffffffffffffffffffffffffffffffffffffff1673ffffffffffffffffffffffffffffffffffffffff161415612a51576007600082815260200190815260200160002060010154915050612a64565b80806001019150506129bf565b50600090505b919050565b60008060055411612a7957600080fd5b6000600190505b6005548111612b1f578273ffffffffffffffffffffffffffffffffffffffff16600a600083815260200190815260200160002060000160009054906101000a900473ffffffffffffffffffffffffffffffffffffffff1673ffffffffffffffffffffffffffffffffffffffff161415612b1257600a600082815260200190815260200160002060010154915050612b25565b8080600101915050612a80565b50600090505b919050565b828054600181600116156101000203166002900490600052602060002090601f016020900481019282601f10612b6b57805160ff1916838001178555612b99565b82800160010185558215612b99579182015b82811115612b98578251825591602001919060010190612b7d565b5b509050612ba69190612baa565b5090565b612bcc91905b80821115612bc8576000816000905550600101612bb0565b5090565b9056fea265627a7a72315820857483f79eaa0b26db4c6c4061c31f0e7c19d0c9d174c38ccda81ced2fa8bda664736f6c63430005100032",
  "source": "pragma solidity >=0.4.22 <0.9.0;\n\ncontract SupplyChain {\n    //Smart Contract owner will be the person who deploys the contract only he can authorize various roles like retailer, Manufacturer,etc\n    address public Owner;\n\n    //note this constructor will be called when smart contract will be deployed on blockchain\n    constructor() public {\n        Owner = msg.sender;\n    }\n\n    modifier onlyByOwner() {\n        require(msg.sender == Owner);\n        _;\n    }\n\n    //stages of a medicine in pharma supply chain\n    enum STAGE {\n        Init,\n        RawMaterialSupply,\n        Manufacture,\n        Distribution,\n        Retail,\n        sold\n    }\n\n\n    //Medicine count\n    uint256 public medicineCtr = 0;\n    //Raw material supplier count\n    uint256 public rmsCtr = 0;\n    //Manufacturer count\n    uint256 public manCtr = 0;\n    //distributor count\n    uint256 public disCtr = 0;\n    //retailer count\n    uint256 public retCtr = 0;\n\n    //To store information about the medicine\n    struct medicine {\n        uint256 id; //unique medicine id\n        string name; //name of the medicine\n        string description; //about medicine\n        uint256 RMSid; //id of the Raw Material supplier for this particular medicine\n        uint256 MANid; //id of the Manufacturer for this particular medicine\n        uint256 DISid; //id of the distributor for this particular medicine\n        uint256 RETid; //id of the retailer for this particular medicine\n        STAGE stage; //current medicine stage\n        uint256 productionDate; //date of production\n        uint256 expiryDate; //date of expiry\n    }\n\n    //To store all the medicines on the blockchain\n    mapping(uint256 => medicine) public MedicineStock;\n\n    //To show status to client applications\n    function showStage(uint256 _medicineID)\n        public\n        view\n        returns (string memory)\n    {\n        require(medicineCtr > 0);\n        if (MedicineStock[_medicineID].stage == STAGE.Init)\n            return \"Medicine Ordered\";\n        else if (MedicineStock[_medicineID].stage == STAGE.RawMaterialSupply)\n            return \"Raw Material Supply Stage\";\n        else if (MedicineStock[_medicineID].stage == STAGE.Manufacture)\n            return \"Manufacturing Stage\";\n        else if (MedicineStock[_medicineID].stage == STAGE.Distribution)\n            return \"Distribution Stage\";\n        else if (MedicineStock[_medicineID].stage == STAGE.Retail)\n            return \"Retail Stage\";\n        else if (MedicineStock[_medicineID].stage == STAGE.sold)\n            return \"Medicine Sold\";\n    }\n\n    //To store information about raw material supplier\n    struct rawMaterialSupplier {\n        address addr;\n        uint256 id; //supplier id\n        string name; //Name of the raw material supplier\n        string place; //Place the raw material supplier is based in\n    }\n\n    //To store all the raw material suppliers on the blockchain\n    mapping(uint256 => rawMaterialSupplier) public RMS;\n\n    //To store information about manufacturer\n    struct manufacturer {\n        address addr;\n        uint256 id; //manufacturer id\n        string name; //Name of the manufacturer\n        string place; //Place the manufacturer is based in\n    }\n\n    //To store all the manufacturers on the blockchain\n    mapping(uint256 => manufacturer) public MAN;\n\n    //To store information about distributor\n    struct distributor {\n        address addr;\n        uint256 id; //distributor id\n        string name; //Name of the distributor\n        string place; //Place the distributor is based in\n    }\n\n    //To store all the distributors on the blockchain\n    mapping(uint256 => distributor) public DIS;\n\n    //To store information about retailer\n    struct retailer {\n        address addr;\n        uint256 id; //retailer id\n        string name; //Name of the retailer\n        string place; //Place the retailer is based in\n    }\n\n    //To store all the retailers on the blockchain\n    mapping(uint256 => retailer) public RET;\n\n    //To add raw material suppliers. Only contract owner can add a new raw material supplier\n    function addRMS(\n        address _address,\n        string memory _name,\n        string memory _place\n    ) public onlyByOwner() {\n        if(rmsCtr>0){\n            require(findRMS(_address) == 0); //Only one raw material supplier can be added\n        }\n        //require(findRMS(_address) == 0); //Only one raw material supplier can be added\n        rmsCtr++;\n        RMS[rmsCtr] = rawMaterialSupplier(_address, rmsCtr, _name, _place);\n    }\n\n    //To add manufacturer. Only contract owner can add a new manufacturer\n    function addManufacturer(\n        address _address,\n        string memory _name,\n        string memory _place\n    ) public onlyByOwner() {\n        if(manCtr>0){\n            require(findMAN(_address) == 0); //Only one raw material supplier can be added\n        }\n        //require(findMAN(_address) == 0); //Only one manufacturer can be added\n        manCtr++;\n        MAN[manCtr] = manufacturer(_address, manCtr, _name, _place);\n    }\n\n    //To add distributor. Only contract owner can add a new distributor\n    function addDistributor(\n        address _address,\n        string memory _name,\n        string memory _place\n    ) public onlyByOwner() {\n        if(disCtr>0){\n            require(findDIS(_address) == 0); //Only one raw material supplier can be added\n        }\n        //require(findDIS(_address) == 0); //Only one distributor can be added\n        disCtr++;\n        DIS[disCtr] = distributor(_address, disCtr, _name, _place);\n    }\n\n    //To add retailer. Only contract owner can add a new retailer\n    function addRetailer(\n        address _address,\n        string memory _name,\n        string memory _place\n    ) public onlyByOwner() {\n        if(retCtr>0){\n            require(findRET(_address) == 0); //Only one raw material supplier can be added\n        }\n        //require(findRET(_address) == 0); //Only one retailer can be added\n        retCtr++;\n        RET[retCtr] = retailer(_address, retCtr, _name, _place);\n    }\n\n    //To supply raw materials from RMS supplier to the manufacturer\n    function RMSsupply(uint256 _medicineID) public {\n        require(_medicineID > 0 && _medicineID <= medicineCtr);\n        uint256 _id = findRMS(msg.sender);\n        require(_id > 0);\n        require(MedicineStock[_medicineID].stage == STAGE.Init);\n        MedicineStock[_medicineID].RMSid = _id;\n        MedicineStock[_medicineID].stage = STAGE.RawMaterialSupply;\n    }\n\n    //To check if RMS is available in the blockchain\n    function findRMS(address _address) private view returns (uint256) {\n        require(rmsCtr > 0);\n        for (uint256 i = 1; i <= rmsCtr; i++) {\n            if (RMS[i].addr == _address) return RMS[i].id;\n        }\n        return 0;\n    }\n\n    //To manufacture medicine\n    function Manufacturing(uint256 _medicineID, uint256 _expdate) public {\n        require(_medicineID > 0 && _medicineID <= medicineCtr);\n        uint256 _id = findMAN(msg.sender);\n        require(_id > 0);\n        require(MedicineStock[_medicineID].stage == STAGE.RawMaterialSupply);\n        require(_expdate > block.timestamp);\n\n        MedicineStock[_medicineID].MANid = _id;\n        MedicineStock[_medicineID].stage = STAGE.Manufacture;\n        MedicineStock[_medicineID].productionDate = block.timestamp;\n        MedicineStock[_medicineID].expiryDate = _expdate;\n    }\n\n    //To check if Manufacturer is available in the blockchain\n    function findMAN(address _address) private view returns (uint256) {\n        require(manCtr > 0);\n        for (uint256 i = 1; i <= manCtr; i++) {\n            if (MAN[i].addr == _address) return MAN[i].id;\n        }\n        return 0;\n    }\n\n    //To supply medicines from Manufacturer to distributor\n    function Distribute(uint256 _medicineID) public {\n        require(_medicineID > 0 && _medicineID <= medicineCtr);\n        uint256 _id = findDIS(msg.sender);\n        require(_id > 0);\n        require(MedicineStock[_medicineID].stage == STAGE.Manufacture);\n        MedicineStock[_medicineID].DISid = _id;\n        MedicineStock[_medicineID].stage = STAGE.Distribution;\n    }\n\n    //To check if distributor is available in the blockchain\n    function findDIS(address _address) private view returns (uint256) {\n        require(disCtr > 0);\n        for (uint256 i = 1; i <= disCtr; i++) {\n            if (DIS[i].addr == _address) return DIS[i].id;\n        }\n        return 0;\n    }\n\n    //To supply medicines from distributor to retailer\n    function Retail(uint256 _medicineID) public {\n        require(_medicineID > 0 && _medicineID <= medicineCtr);\n        uint256 _id = findRET(msg.sender);\n        require(_id > 0);\n        require(MedicineStock[_medicineID].stage == STAGE.Distribution);\n        MedicineStock[_medicineID].RETid = _id;\n        MedicineStock[_medicineID].stage = STAGE.Retail;\n    }\n\n    //To check if retailer is available in the blockchain\n    function findRET(address _address) private view returns (uint256) {\n        require(retCtr > 0);\n        for (uint256 i = 1; i <= retCtr; i++) {\n            if (RET[i].addr == _address) return RET[i].id;\n        }\n        return 0;\n    }\n\n    //To sell medicines from retailer to consumer\n    function sold(uint256 _medicineID) public {\n        require(_medicineID > 0 && _medicineID <= medicineCtr);\n        uint256 _id = findRET(msg.sender);\n        require(_id > 0);\n        require(_id == MedicineStock[_medicineID].RETid); //Only correct retailer can mark medicine as sold\n        require(MedicineStock[_medicineID].stage == STAGE.Retail);\n        MedicineStock[_medicineID].stage = STAGE.sold;\n    }\n\n    // To add new medicines to the stock\n    function addMedicine(string memory _name, string memory _description)\n        public\n        onlyByOwner()\n    {\n        require((rmsCtr > 0) && (manCtr > 0) && (disCtr > 0) && (retCtr > 0));\n        medicineCtr++;\n        MedicineStock[medicineCtr] = medicine(\n            medicineCtr,\n            _name,\n            _description,\n            0,\n            0,\n            0,\n            0,\n            STAGE.Init,\n            0,\n            0\n        );\n    }\n}\n",
  "sourcePath": "D:\\PPP\\supply-chain-truffle-react-main\\supply-chain-truffle-react-main\\contracts\\SupplyChain.sol",
  "compiler": {
    "name": "solc",
    "version": "0.5.16+commit.9c3226ce.Emscripten.clang"
  },
  "schemaVersion": "3.4.16",
  "updatedAt": "2025-03-11T06:47:55.730Z",
  "networkType": "ethereum",
  "devdoc": {
    "methods": {}
  },
  "userdoc": {
    "methods": {}
  }
}