{
  "contractName": "SupplyChain",
  "abi": [
    {
      "inputs": [],
      "payable": false,
      "stateMutability": "nonpayable",
      "type": "constructor"
    },
    {
      "constant": true,
      "inputs": [
        {
          "internalType": "uint256",
          "name": "",
          "type": "uint256"
        }
      ],
      "name": "DIS",
      "outputs": [
        {
          "internalType": "address",
          "name": "addr",
          "type": "address"
        },
        {
          "internalType": "uint256",
          "name": "id",
          "type": "uint256"
        },
        {
          "internalType": "string",
          "name": "name",
          "type": "string"
        },
        {
          "internalType": "string",
          "name": "place",
          "type": "string"
        }
      ],
      "payable": false,
      "stateMutability": "view",
      "type": "function"
    },
    {
      "constant": true,
      "inputs": [
        {
          "internalType": "uint256",
          "name": "",
          "type": "uint256"
        }
      ],
      "name": "MAN",
      "outputs": [
        {
          "internalType": "address",
          "name": "addr",
          "type": "address"
        },
        {
          "internalType": "uint256",
          "name": "id",
          "type": "uint256"
        },
        {
          "internalType": "string",
          "name": "name",
          "type": "string"
        },
        {
          "internalType": "string",
          "name": "place",
          "type": "string"
        }
      ],
      "payable": false,
      "stateMutability": "view",
      "type": "function"
    },
    {
      "constant": true,
      "inputs": [
        {
          "internalType": "uint256",
          "name": "",
          "type": "uint256"
        }
      ],
      "name": "MedicineStock",
      "outputs": [
        {
          "internalType": "uint256",
          "name": "id",
          "type": "uint256"
        },
        {
          "internalType": "string",
          "name": "name",
          "type": "string"
        },
        {
          "internalType": "string",
          "name": "description",
          "type": "string"
        },
        {
          "internalType": "uint256",
          "name": "RMSid",
          "type": "uint256"
        },
        {
          "internalType": "uint256",
          "name": "MANid",
          "type": "uint256"
        },
        {
          "internalType": "uint256",
          "name": "DISid",
          "type": "uint256"
        },
        {
          "internalType": "uint256",
          "name": "RETid",
          "type": "uint256"
        },
        {
          "internalType": "enum SupplyChain.STAGE",
          "name": "stage",
          "type": "uint8"
        }
      ],
      "payable": false,
      "stateMutability": "view",
      "type": "function"
    },
    {
      "constant": true,
      "inputs": [],
      "name": "Owner",
      "outputs": [
        {
          "internalType": "address",
          "name": "",
          "type": "address"
        }
      ],
      "payable": false,
      "stateMutability": "view",
      "type": "function"
    },
    {
      "constant": true,
      "inputs": [
        {
          "internalType": "uint256",
          "name": "",
          "type": "uint256"
        }
      ],
      "name": "RET",
      "outputs": [
        {
          "internalType": "address",
          "name": "addr",
          "type": "address"
        },
        {
          "internalType": "uint256",
          "name": "id",
          "type": "uint256"
        },
        {
          "internalType": "string",
          "name": "name",
          "type": "string"
        },
        {
          "internalType": "string",
          "name": "place",
          "type": "string"
        }
      ],
      "payable": false,
      "stateMutability": "view",
      "type": "function"
    },
    {
      "constant": true,
      "inputs": [
        {
          "internalType": "uint256",
          "name": "",
          "type": "uint256"
        }
      ],
      "name": "RMS",
      "outputs": [
        {
          "internalType": "address",
          "name": "addr",
          "type": "address"
        },
        {
          "internalType": "uint256",
          "name": "id",
          "type": "uint256"
        },
        {
          "internalType": "string",
          "name": "name",
          "type": "string"
        },
        {
          "internalType": "string",
          "name": "place",
          "type": "string"
        }
      ],
      "payable": false,
      "stateMutability": "view",
      "type": "function"
    },
    {
      "constant": true,
      "inputs": [],
      "name": "disCtr",
      "outputs": [
        {
          "internalType": "uint256",
          "name": "",
          "type": "uint256"
        }
      ],
      "payable": false,
      "stateMutability": "view",
      "type": "function"
    },
    {
      "constant": true,
      "inputs": [],
      "name": "manCtr",
      "outputs": [
        {
          "internalType": "uint256",
          "name": "",
          "type": "uint256"
        }
      ],
      "payable": false,
      "stateMutability": "view",
      "type": "function"
    },
    {
      "constant": true,
      "inputs": [],
      "name": "medicineCtr",
      "outputs": [
        {
          "internalType": "uint256",
          "name": "",
          "type": "uint256"
        }
      ],
      "payable": false,
      "stateMutability": "view",
      "type": "function"
    },
    {
      "constant": true,
      "inputs": [],
      "name": "retCtr",
      "outputs": [
        {
          "internalType": "uint256",
          "name": "",
          "type": "uint256"
        }
      ],
      "payable": false,
      "stateMutability": "view",
      "type": "function"
    },
    {
      "constant": true,
      "inputs": [],
      "name": "rmsCtr",
      "outputs": [
        {
          "internalType": "uint256",
          "name": "",
          "type": "uint256"
        }
      ],
      "payable": false,
      "stateMutability": "view",
      "type": "function"
    },
    {
      "constant": true,
      "inputs": [
        {
          "internalType": "uint256",
          "name": "_medicineID",
          "type": "uint256"
        }
      ],
      "name": "showStage",
      "outputs": [
        {
          "internalType": "string",
          "name": "",
          "type": "string"
        }
      ],
      "payable": false,
      "stateMutability": "view",
      "type": "function"
    },
    {
      "constant": false,
      "inputs": [
        {
          "internalType": "address",
          "name": "_address",
          "type": "address"
        },
        {
          "internalType": "string",
          "name": "_name",
          "type": "string"
        },
        {
          "internalType": "string",
          "name": "_place",
          "type": "string"
        }
      ],
      "name": "addRMS",
      "outputs": [],
      "payable": false,
      "stateMutability": "nonpayable",
      "type": "function"
    },
    {
      "constant": false,
      "inputs": [
        {
          "internalType": "address",
          "name": "_address",
          "type": "address"
        },
        {
          "internalType": "string",
          "name": "_name",
          "type": "string"
        },
        {
          "internalType": "string",
          "name": "_place",
          "type": "string"
        }
      ],
      "name": "addManufacturer",
      "outputs": [],
      "payable": false,
      "stateMutability": "nonpayable",
      "type": "function"
    },
    {
      "constant": false,
      "inputs": [
        {
          "internalType": "address",
          "name": "_address",
          "type": "address"
        },
        {
          "internalType": "string",
          "name": "_name",
          "type": "string"
        },
        {
          "internalType": "string",
          "name": "_place",
          "type": "string"
        }
      ],
      "name": "addDistributor",
      "outputs": [],
      "payable": false,
      "stateMutability": "nonpayable",
      "type": "function"
    },
    {
      "constant": false,
      "inputs": [
        {
          "internalType": "address",
          "name": "_address",
          "type": "address"
        },
        {
          "internalType": "string",
          "name": "_name",
          "type": "string"
        },
        {
          "internalType": "string",
          "name": "_place",
          "type": "string"
        }
      ],
      "name": "addRetailer",
      "outputs": [],
      "payable": false,
      "stateMutability": "nonpayable",
      "type": "function"
    },
    {
      "constant": false,
      "inputs": [
        {
          "internalType": "uint256",
          "name": "_medicineID",
          "type": "uint256"
        }
      ],
      "name": "RMSsupply",
      "outputs": [],
      "payable": false,
      "stateMutability": "nonpayable",
      "type": "function"
    },
    {
      "constant": false,
      "inputs": [
        {
          "internalType": "uint256",
          "name": "_medicineID",
          "type": "uint256"
        }
      ],
      "name": "Manufacturing",
      "outputs": [],
      "payable": false,
      "stateMutability": "nonpayable",
      "type": "function"
    },
    {
      "constant": false,
      "inputs": [
        {
          "internalType": "uint256",
          "name": "_medicineID",
          "type": "uint256"
        }
      ],
      "name": "Distribute",
      "outputs": [],
      "payable": false,
      "stateMutability": "nonpayable",
      "type": "function"
    },
    {
      "constant": false,
      "inputs": [
        {
          "internalType": "uint256",
          "name": "_medicineID",
          "type": "uint256"
        }
      ],
      "name": "Retail",
      "outputs": [],
      "payable": false,
      "stateMutability": "nonpayable",
      "type": "function"
    },
    {
      "constant": false,
      "inputs": [
        {
          "internalType": "uint256",
          "name": "_medicineID",
          "type": "uint256"
        }
      ],
      "name": "sold",
      "outputs": [],
      "payable": false,
      "stateMutability": "nonpayable",
      "type": "function"
    },
    {
      "constant": false,
      "inputs": [
        {
          "internalType": "string",
          "name": "_name",
          "type": "string"
        },
        {
          "internalType": "string",
          "name": "_description",
          "type": "string"
        }
      ],
      "name": "addMedicine",
      "outputs": [],
      "payable": false,
      "stateMutability": "nonpayable",
      "type": "function"
    }
  ],
  "bytecode": "0x60806040526000600155600060025560006003556000600455600060055534801561002957600080fd5b50336000806101000a81548173ffffffffffffffffffffffffffffffffffffffff021916908373ffffffffffffffffffffffffffffffffffffffff160217905550612b79806100796000396000f3fe608060405234801561001057600080fd5b50600436106101425760003560e01c806386c18275116100b8578063b4a99a4e1161007c578063b4a99a4e14610c59578063cc40306914610ca3578063dd28639814610df0578063e101a2e014610e0e578063eb1a06b514610eb5578063eef5cb401461100057610142565b806386c1827514610a5f5780638f4183cc14610a8d5780639c03facb14610bdf578063a48d335a14610c0d578063a95f29d914610c3b57610142565b8063438e9c4d1161010a578063438e9c4d146105c45780634def474a146105e257806359bf286f146106105780636a992c9f1461075d5780637e43d94d146108cf578063857ddb04146108ed57610142565b80632a4af440146101475780632b0187ac146102b95780632b70b08d146104065780632bdb2e6b146105785780633d753a1c14610596575b600080fd5b6102b76004803603606081101561015d57600080fd5b81019080803573ffffffffffffffffffffffffffffffffffffffff1690602001909291908035906020019064010000000081111561019a57600080fd5b8201836020820111156101ac57600080fd5b803590602001918460018302840111640100000000831117156101ce57600080fd5b91908080601f016020809104026020016040519081016040528093929190818152602001838380828437600081840152601f19601f8201169050808301925050505050505091929192908035906020019064010000000081111561023157600080fd5b82018360208201111561024357600080fd5b8035906020019184600183028401116401000000008311171561026557600080fd5b91908080601f016020809104026020016040519081016040528093929190818152602001838380828437600081840152601f19601f82011690508083019250505050505050919291929050505061114d565b005b6102e5600480360360208110156102cf57600080fd5b81019080803590602001909291905050506112ba565b604051808573ffffffffffffffffffffffffffffffffffffffff1673ffffffffffffffffffffffffffffffffffffffff1681526020018481526020018060200180602001838103835285818151815260200191508051906020019080838360005b83811015610361578082015181840152602081019050610346565b50505050905090810190601f16801561038e5780820380516001836020036101000a031916815260200191505b50838103825284818151815260200191508051906020019080838360005b838110156103c75780820151818401526020810190506103ac565b50505050905090810190601f1680156103f45780820380516001836020036101000a031916815260200191505b50965050505050505060405180910390f35b6105766004803603606081101561041c57600080fd5b81019080803573ffffffffffffffffffffffffffffffffffffffff1690602001909291908035906020019064010000000081111561045957600080fd5b82018360208201111561046b57600080fd5b8035906020019184600183028401116401000000008311171561048d57600080fd5b91908080601f016020809104026020016040519081016040528093929190818152602001838380828437600081840152601f19601f820116905080830192505050505050509192919290803590602001906401000000008111156104f057600080fd5b82018360208201111561050257600080fd5b8035906020019184600183028401116401000000008311171561052457600080fd5b91908080601f016020809104026020016040519081016040528093929190818152602001838380828437600081840152601f19601f82011690508083019250505050505050919291929050505061143a565b005b6105806115a7565b6040518082815260200191505060405180910390f35b6105c2600480360360208110156105ac57600080fd5b81019080803590602001909291905050506115ad565b005b6105cc61167f565b6040518082815260200191505060405180910390f35b61060e600480360360208110156105f857600080fd5b8101908080359060200190929190505050611685565b005b61063c6004803603602081101561062657600080fd5b8101908080359060200190929190505050611757565b604051808573ffffffffffffffffffffffffffffffffffffffff1673ffffffffffffffffffffffffffffffffffffffff1681526020018481526020018060200180602001838103835285818151815260200191508051906020019080838360005b838110156106b857808201518184015260208101905061069d565b50505050905090810190601f1680156106e55780820380516001836020036101000a031916815260200191505b50838103825284818151815260200191508051906020019080838360005b8381101561071e578082015181840152602081019050610703565b50505050905090810190601f16801561074b5780820380516001836020036101000a031916815260200191505b50965050505050505060405180910390f35b6108cd6004803603606081101561077357600080fd5b81019080803573ffffffffffffffffffffffffffffffffffffffff169060200190929190803590602001906401000000008111156107b057600080fd5b8201836020820111156107c257600080fd5b803590602001918460018302840111640100000000831117156107e457600080fd5b91908080601f016020809104026020016040519081016040528093929190818152602001838380828437600081840152601f19601f8201169050808301925050505050505091929192908035906020019064010000000081111561084757600080fd5b82018360208201111561085957600080fd5b8035906020019184600183028401116401000000008311171561087b57600080fd5b91908080601f016020809104026020016040519081016040528093929190818152602001838380828437600081840152601f19601f8201169050808301925050505050505091929192905050506118d7565b005b6108d7611a44565b6040518082815260200191505060405180910390f35b610a5d6004803603606081101561090357600080fd5b81019080803573ffffffffffffffffffffffffffffffffffffffff1690602001909291908035906020019064010000000081111561094057600080fd5b82018360208201111561095257600080fd5b8035906020019184600183028401116401000000008311171561097457600080fd5b91908080601f016020809104026020016040519081016040528093929190818152602001838380828437600081840152601f19601f820116905080830192505050505050509192919290803590602001906401000000008111156109d757600080fd5b8201836020820111156109e957600080fd5b80359060200191846001830284011164010000000083111715610a0b57600080fd5b91908080601f016020809104026020016040519081016040528093929190818152602001838380828437600081840152601f19601f820116905080830192505050505050509192919290505050611a4a565b005b610a8b60048036036020811015610a7557600080fd5b8101908080359060200190929190505050611bb7565b005b610bdd60048036036040811015610aa357600080fd5b8101908080359060200190640100000000811115610ac057600080fd5b820183602082011115610ad257600080fd5b80359060200191846001830284011164010000000083111715610af457600080fd5b91908080601f016020809104026020016040519081016040528093929190818152602001838380828437600081840152601f19601f82011690508083019250505050505050919291929080359060200190640100000000811115610b5757600080fd5b820183602082011115610b6957600080fd5b80359060200191846001830284011164010000000083111715610b8b57600080fd5b91908080601f016020809104026020016040519081016040528093929190818152602001838380828437600081840152601f19601f820116905080830192505050505050509192919290505050611c89565b005b610c0b60048036036020811015610bf557600080fd5b8101908080359060200190929190505050611e2a565b005b610c3960048036036020811015610c2357600080fd5b8101908080359060200190929190505050611f03565b005b610c43611fd5565b6040518082815260200191505060405180910390f35b610c61611fdb565b604051808273ffffffffffffffffffffffffffffffffffffffff1673ffffffffffffffffffffffffffffffffffffffff16815260200191505060405180910390f35b610ccf60048036036020811015610cb957600080fd5b8101908080359060200190929190505050612000565b604051808573ffffffffffffffffffffffffffffffffffffffff1673ffffffffffffffffffffffffffffffffffffffff1681526020018481526020018060200180602001838103835285818151815260200191508051906020019080838360005b83811015610d4b578082015181840152602081019050610d30565b50505050905090810190601f168015610d785780820380516001836020036101000a031916815260200191505b50838103825284818151815260200191508051906020019080838360005b83811015610db1578082015181840152602081019050610d96565b50505050905090810190601f168015610dde5780820380516001836020036101000a031916815260200191505b50965050505050505060405180910390f35b610df8612180565b6040518082815260200191505060405180910390f35b610e3a60048036036020811015610e2457600080fd5b8101908080359060200190929190505050612186565b6040518080602001828103825283818151815260200191508051906020019080838360005b83811015610e7a578082015181840152602081019050610e5f565b50505050905090810190601f168015610ea75780820380516001836020036101000a031916815260200191505b509250505060405180910390f35b610ee160048036036020811015610ecb57600080fd5b8101908080359060200190929190505050612496565b604051808981526020018060200180602001888152602001878152602001868152602001858152602001846005811115610f1757fe5b60ff16815260200183810383528a818151815260200191508051906020019080838360005b83811015610f57578082015181840152602081019050610f3c565b50505050905090810190601f168015610f845780820380516001836020036101000a031916815260200191505b50838103825289818151815260200191508051906020019080838360005b83811015610fbd578082015181840152602081019050610fa2565b50505050905090810190601f168015610fea5780820380516001836020036101000a031916815260200191505b509a505050505050505050505060405180910390f35b61102c6004803603602081101561101657600080fd5b810190808035906020019092919050505061261b565b604051808573ffffffffffffffffffffffffffffffffffffffff1673ffffffffffffffffffffffffffffffffffffffff1681526020018481526020018060200180602001838103835285818151815260200191508051906020019080838360005b838110156110a857808201518184015260208101905061108d565b50505050905090810190601f1680156110d55780820380516001836020036101000a031916815260200191505b50838103825284818151815260200191508051906020019080838360005b8381101561110e5780820151818401526020810190506110f3565b50505050905090810190601f16801561113b5780820380516001836020036101000a031916815260200191505b50965050505050505060405180910390f35b6000809054906101000a900473ffffffffffffffffffffffffffffffffffffffff1673ffffffffffffffffffffffffffffffffffffffff163373ffffffffffffffffffffffffffffffffffffffff16146111a657600080fd5b600060045411156111c75760006111bc8461279b565b146111c657600080fd5b5b60046000815480929190600101919050555060405180608001604052808473ffffffffffffffffffffffffffffffffffffffff16815260200160045481526020018381526020018281525060096000600454815260200190815260200160002060008201518160000160006101000a81548173ffffffffffffffffffffffffffffffffffffffff021916908373ffffffffffffffffffffffffffffffffffffffff160217905550602082015181600101556040820151816002019080519060200190611294929190612a9f565b5060608201518160030190805190602001906112b1929190612a9f565b50905050505050565b60096020528060005260406000206000915090508060000160009054906101000a900473ffffffffffffffffffffffffffffffffffffffff1690806001015490806002018054600181600116156101000203166002900480601f0160208091040260200160405190810160405280929190818152602001828054600181600116156101000203166002900480156113925780601f1061136757610100808354040283529160200191611392565b820191906000526020600020905b81548152906001019060200180831161137557829003601f168201915b505050505090806003018054600181600116156101000203166002900480601f0160208091040260200160405190810160405280929190818152602001828054600181600116156101000203166002900480156114305780601f1061140557610100808354040283529160200191611430565b820191906000526020600020905b81548152906001019060200180831161141357829003601f168201915b5050505050905084565b6000809054906101000a900473ffffffffffffffffffffffffffffffffffffffff1673ffffffffffffffffffffffffffffffffffffffff163373ffffffffffffffffffffffffffffffffffffffff161461149357600080fd5b600060025411156114b45760006114a98461285c565b146114b357600080fd5b5b60026000815480929190600101919050555060405180608001604052808473ffffffffffffffffffffffffffffffffffffffff16815260200160025481526020018381526020018281525060076000600254815260200190815260200160002060008201518160000160006101000a81548173ffffffffffffffffffffffffffffffffffffffff021916908373ffffffffffffffffffffffffffffffffffffffff160217905550602082015181600101556040820151816002019080519060200190611581929190612a9f565b50606082015181600301908051906020019061159e929190612a9f565b50905050505050565b60045481565b6000811180156115bf57506001548111155b6115c857600080fd5b60006115d33361291d565b9050600081116115e257600080fd5b600360058111156115ef57fe5b6006600084815260200190815260200160002060070160009054906101000a900460ff16600581111561161e57fe5b1461162857600080fd5b80600660008481526020019081526020016000206006018190555060046006600084815260200190815260200160002060070160006101000a81548160ff0219169083600581111561167657fe5b02179055505050565b60035481565b60008111801561169757506001548111155b6116a057600080fd5b60006116ab3361279b565b9050600081116116ba57600080fd5b600260058111156116c757fe5b6006600084815260200190815260200160002060070160009054906101000a900460ff1660058111156116f657fe5b1461170057600080fd5b80600660008481526020019081526020016000206005018190555060036006600084815260200190815260200160002060070160006101000a81548160ff0219169083600581111561174e57fe5b02179055505050565b600a6020528060005260406000206000915090508060000160009054906101000a900473ffffffffffffffffffffffffffffffffffffffff1690806001015490806002018054600181600116156101000203166002900480601f01602080910402602001604051908101604052809291908181526020018280546001816001161561010002031660029004801561182f5780601f106118045761010080835404028352916020019161182f565b820191906000526020600020905b81548152906001019060200180831161181257829003601f168201915b505050505090806003018054600181600116156101000203166002900480601f0160208091040260200160405190810160405280929190818152602001828054600181600116156101000203166002900480156118cd5780601f106118a2576101008083540402835291602001916118cd565b820191906000526020600020905b8154815290600101906020018083116118b057829003601f168201915b5050505050905084565b6000809054906101000a900473ffffffffffffffffffffffffffffffffffffffff1673ffffffffffffffffffffffffffffffffffffffff163373ffffffffffffffffffffffffffffffffffffffff161461193057600080fd5b60006003541115611951576000611946846129de565b1461195057600080fd5b5b60036000815480929190600101919050555060405180608001604052808473ffffffffffffffffffffffffffffffffffffffff16815260200160035481526020018381526020018281525060086000600354815260200190815260200160002060008201518160000160006101000a81548173ffffffffffffffffffffffffffffffffffffffff021916908373ffffffffffffffffffffffffffffffffffffffff160217905550602082015181600101556040820151816002019080519060200190611a1e929190612a9f565b506060820151816003019080519060200190611a3b929190612a9f565b50905050505050565b60055481565b6000809054906101000a900473ffffffffffffffffffffffffffffffffffffffff1673ffffffffffffffffffffffffffffffffffffffff163373ffffffffffffffffffffffffffffffffffffffff1614611aa357600080fd5b60006005541115611ac4576000611ab98461291d565b14611ac357600080fd5b5b60056000815480929190600101919050555060405180608001604052808473ffffffffffffffffffffffffffffffffffffffff168152602001600554815260200183815260200182815250600a6000600554815260200190815260200160002060008201518160000160006101000a81548173ffffffffffffffffffffffffffffffffffffffff021916908373ffffffffffffffffffffffffffffffffffffffff160217905550602082015181600101556040820151816002019080519060200190611b91929190612a9f565b506060820151816003019080519060200190611bae929190612a9f565b50905050505050565b600081118015611bc957506001548111155b611bd257600080fd5b6000611bdd3361285c565b905060008111611bec57600080fd5b60006005811115611bf957fe5b6006600084815260200190815260200160002060070160009054906101000a900460ff166005811115611c2857fe5b14611c3257600080fd5b80600660008481526020019081526020016000206003018190555060016006600084815260200190815260200160002060070160006101000a81548160ff02191690836005811115611c8057fe5b02179055505050565b6000809054906101000a900473ffffffffffffffffffffffffffffffffffffffff1673ffffffffffffffffffffffffffffffffffffffff163373ffffffffffffffffffffffffffffffffffffffff1614611ce257600080fd5b6000600254118015611cf657506000600354115b8015611d0457506000600454115b8015611d1257506000600554115b611d1b57600080fd5b60016000815480929190600101919050555060405180610100016040528060015481526020018381526020018281526020016000815260200160008152602001600081526020016000815260200160006005811115611d7657fe5b815250600660006001548152602001908152602001600020600082015181600001556020820151816001019080519060200190611db4929190612a9f565b506040820151816002019080519060200190611dd1929190612a9f565b50606082015181600301556080820151816004015560a0820151816005015560c0820151816006015560e08201518160070160006101000a81548160ff02191690836005811115611e1e57fe5b02179055509050505050565b600081118015611e3c57506001548111155b611e4557600080fd5b6000611e503361291d565b905060008111611e5f57600080fd5b60066000838152602001908152602001600020600601548114611e8157600080fd5b60046005811115611e8e57fe5b6006600084815260200190815260200160002060070160009054906101000a900460ff166005811115611ebd57fe5b14611ec757600080fd5b60056006600084815260200190815260200160002060070160006101000a81548160ff02191690836005811115611efa57fe5b02179055505050565b600081118015611f1557506001548111155b611f1e57600080fd5b6000611f29336129de565b905060008111611f3857600080fd5b60016005811115611f4557fe5b6006600084815260200190815260200160002060070160009054906101000a900460ff166005811115611f7457fe5b14611f7e57600080fd5b80600660008481526020019081526020016000206004018190555060026006600084815260200190815260200160002060070160006101000a81548160ff02191690836005811115611fcc57fe5b02179055505050565b60015481565b6000809054906101000a900473ffffffffffffffffffffffffffffffffffffffff1681565b60086020528060005260406000206000915090508060000160009054906101000a900473ffffffffffffffffffffffffffffffffffffffff1690806001015490806002018054600181600116156101000203166002900480601f0160208091040260200160405190810160405280929190818152602001828054600181600116156101000203166002900480156120d85780601f106120ad576101008083540402835291602001916120d8565b820191906000526020600020905b8154815290600101906020018083116120bb57829003601f168201915b505050505090806003018054600181600116156101000203166002900480601f0160208091040260200160405190810160405280929190818152602001828054600181600116156101000203166002900480156121765780601f1061214b57610100808354040283529160200191612176565b820191906000526020600020905b81548152906001019060200180831161215957829003601f168201915b5050505050905084565b60025481565b606060006001541161219757600080fd5b600060058111156121a457fe5b6006600084815260200190815260200160002060070160009054906101000a900460ff1660058111156121d357fe5b1415612216576040518060400160405280601081526020017f4d65646963696e65204f726465726564000000000000000000000000000000008152509050612491565b6001600581111561222357fe5b6006600084815260200190815260200160002060070160009054906101000a900460ff16600581111561225257fe5b1415612295576040518060400160405280601981526020017f526177204d6174657269616c20537570706c79205374616765000000000000008152509050612491565b600260058111156122a257fe5b6006600084815260200190815260200160002060070160009054906101000a900460ff1660058111156122d157fe5b1415612314576040518060400160405280601381526020017f4d616e75666163747572696e67205374616765000000000000000000000000008152509050612491565b6003600581111561232157fe5b6006600084815260200190815260200160002060070160009054906101000a900460ff16600581111561235057fe5b1415612393576040518060400160405280601281526020017f446973747269627574696f6e20537461676500000000000000000000000000008152509050612491565b600460058111156123a057fe5b6006600084815260200190815260200160002060070160009054906101000a900460ff1660058111156123cf57fe5b1415612412576040518060400160405280600c81526020017f52657461696c20537461676500000000000000000000000000000000000000008152509050612491565b60058081111561241e57fe5b6006600084815260200190815260200160002060070160009054906101000a900460ff16600581111561244d57fe5b1415612490576040518060400160405280600d81526020017f4d65646963696e6520536f6c64000000000000000000000000000000000000008152509050612491565b5b919050565b6006602052806000526040600020600091509050806000015490806001018054600181600116156101000203166002900480601f0160208091040260200160405190810160405280929190818152602001828054600181600116156101000203166002900480156125485780601f1061251d57610100808354040283529160200191612548565b820191906000526020600020905b81548152906001019060200180831161252b57829003601f168201915b505050505090806002018054600181600116156101000203166002900480601f0160208091040260200160405190810160405280929190818152602001828054600181600116156101000203166002900480156125e65780601f106125bb576101008083540402835291602001916125e6565b820191906000526020600020905b8154815290600101906020018083116125c957829003601f168201915b5050505050908060030154908060040154908060050154908060060154908060070160009054906101000a900460ff16905088565b60076020528060005260406000206000915090508060000160009054906101000a900473ffffffffffffffffffffffffffffffffffffffff1690806001015490806002018054600181600116156101000203166002900480601f0160208091040260200160405190810160405280929190818152602001828054600181600116156101000203166002900480156126f35780601f106126c8576101008083540402835291602001916126f3565b820191906000526020600020905b8154815290600101906020018083116126d657829003601f168201915b505050505090806003018054600181600116156101000203166002900480601f0160208091040260200160405190810160405280929190818152602001828054600181600116156101000203166002900480156127915780601f1061276657610100808354040283529160200191612791565b820191906000526020600020905b81548152906001019060200180831161277457829003601f168201915b5050505050905084565b600080600454116127ab57600080fd5b6000600190505b6004548111612851578273ffffffffffffffffffffffffffffffffffffffff166009600083815260200190815260200160002060000160009054906101000a900473ffffffffffffffffffffffffffffffffffffffff1673ffffffffffffffffffffffffffffffffffffffff161415612844576009600082815260200190815260200160002060010154915050612857565b80806001019150506127b2565b50600090505b919050565b6000806002541161286c57600080fd5b6000600190505b6002548111612912578273ffffffffffffffffffffffffffffffffffffffff166007600083815260200190815260200160002060000160009054906101000a900473ffffffffffffffffffffffffffffffffffffffff1673ffffffffffffffffffffffffffffffffffffffff161415612905576007600082815260200190815260200160002060010154915050612918565b8080600101915050612873565b50600090505b919050565b6000806005541161292d57600080fd5b6000600190505b60055481116129d3578273ffffffffffffffffffffffffffffffffffffffff16600a600083815260200190815260200160002060000160009054906101000a900473ffffffffffffffffffffffffffffffffffffffff1673ffffffffffffffffffffffffffffffffffffffff1614156129c657600a6000828152602001908152602001600020600101549150506129d9565b8080600101915050612934565b50600090505b919050565b600080600354116129ee57600080fd5b6000600190505b6003548111612a94578273ffffffffffffffffffffffffffffffffffffffff166008600083815260200190815260200160002060000160009054906101000a900473ffffffffffffffffffffffffffffffffffffffff1673ffffffffffffffffffffffffffffffffffffffff161415612a87576008600082815260200190815260200160002060010154915050612a9a565b80806001019150506129f5565b50600090505b919050565b828054600181600116156101000203166002900490600052602060002090601f016020900481019282601f10612ae057805160ff1916838001178555612b0e565b82800160010185558215612b0e579182015b82811115612b0d578251825591602001919060010190612af2565b5b509050612b1b9190612b1f565b5090565b612b4191905b80821115612b3d576000816000905550600101612b25565b5090565b9056fea265627a7a723158208c92f940073c8bb3eddf529bc9c51074883380b33e52d0458aa649f32a147c1b64736f6c63430005100032",
  "source": "// SPDX-License-Identifier: MIT\npragma solidity >=0.4.22 <0.9.0;\n\ncontract SupplyChain {\n    //Smart Contract owner will be the person who deploys the contract only he can authorize various roles like retailer, Manufacturer,etc\n    address public Owner;\n\n    //note this constructor will be called when smart contract will be deployed on blockchain\n    constructor() public {\n        Owner = msg.sender;\n    }\n\n    //Roles (flow of pharma supply chain)\n    // RawMaterialSupplier; //This is where Manufacturer will get raw materials to make medicines\n    // Manufacturer;  //Various WHO guidelines should be followed by this person\n    // Distributor; //This guy distributes the medicines to retailers\n    // Retailer; //Normal customer buys from the retailer\n\n    //modifier to make sure only the owner is using the function\n    modifier onlyByOwner() {\n        require(msg.sender == Owner);\n        _;\n    }\n\n    //stages of a medicine in pharma supply chain\n    enum STAGE {\n        Init,\n        RawMaterialSupply,\n        Manufacture,\n        Distribution,\n        Retail,\n        sold\n    }\n    //using this we are going to track every single medicine the owner orders\n\n    //Medicine count\n    uint256 public medicineCtr = 0;\n    //Raw material supplier count\n    uint256 public rmsCtr = 0;\n    //Manufacturer count\n    uint256 public manCtr = 0;\n    //distributor count\n    uint256 public disCtr = 0;\n    //retailer count\n    uint256 public retCtr = 0;\n\n    //To store information about the medicine\n    struct medicine {\n        uint256 id; //unique medicine id\n        string name; //name of the medicine\n        string description; //about medicine\n        uint256 RMSid; //id of the Raw Material supplier for this particular medicine\n        uint256 MANid; //id of the Manufacturer for this particular medicine\n        uint256 DISid; //id of the distributor for this particular medicine\n        uint256 RETid; //id of the retailer for this particular medicine\n        STAGE stage; //current medicine stage\n    }\n\n    //To store all the medicines on the blockchain\n    mapping(uint256 => medicine) public MedicineStock;\n\n    //To show status to client applications\n    function showStage(uint256 _medicineID)\n        public\n        view\n        returns (string memory)\n    {\n        require(medicineCtr > 0);\n        if (MedicineStock[_medicineID].stage == STAGE.Init)\n            return \"Medicine Ordered\";\n        else if (MedicineStock[_medicineID].stage == STAGE.RawMaterialSupply)\n            return \"Raw Material Supply Stage\";\n        else if (MedicineStock[_medicineID].stage == STAGE.Manufacture)\n            return \"Manufacturing Stage\";\n        else if (MedicineStock[_medicineID].stage == STAGE.Distribution)\n            return \"Distribution Stage\";\n        else if (MedicineStock[_medicineID].stage == STAGE.Retail)\n            return \"Retail Stage\";\n        else if (MedicineStock[_medicineID].stage == STAGE.sold)\n            return \"Medicine Sold\";\n    }\n\n    //To store information about raw material supplier\n    struct rawMaterialSupplier {\n        address addr;\n        uint256 id; //supplier id\n        string name; //Name of the raw material supplier\n        string place; //Place the raw material supplier is based in\n    }\n\n    //To store all the raw material suppliers on the blockchain\n    mapping(uint256 => rawMaterialSupplier) public RMS;\n\n    //To store information about manufacturer\n    struct manufacturer {\n        address addr;\n        uint256 id; //manufacturer id\n        string name; //Name of the manufacturer\n        string place; //Place the manufacturer is based in\n    }\n\n    //To store all the manufacturers on the blockchain\n    mapping(uint256 => manufacturer) public MAN;\n\n    //To store information about distributor\n    struct distributor {\n        address addr;\n        uint256 id; //distributor id\n        string name; //Name of the distributor\n        string place; //Place the distributor is based in\n    }\n\n    //To store all the distributors on the blockchain\n    mapping(uint256 => distributor) public DIS;\n\n    //To store information about retailer\n    struct retailer {\n        address addr;\n        uint256 id; //retailer id\n        string name; //Name of the retailer\n        string place; //Place the retailer is based in\n    }\n\n    //To store all the retailers on the blockchain\n    mapping(uint256 => retailer) public RET;\n\n    //To add raw material suppliers. Only contract owner can add a new raw material supplier\n    function addRMS(\n        address _address,\n        string memory _name,\n        string memory _place\n    ) public onlyByOwner() {\n        if(rmsCtr>0){\n            require(findRMS(_address) == 0); //Only one raw material supplier can be added\n        }\n        //require(findRMS(_address) == 0); //Only one raw material supplier can be added\n        rmsCtr++;\n        RMS[rmsCtr] = rawMaterialSupplier(_address, rmsCtr, _name, _place);\n    }\n\n    //To add manufacturer. Only contract owner can add a new manufacturer\n    function addManufacturer(\n        address _address,\n        string memory _name,\n        string memory _place\n    ) public onlyByOwner() {\n        if(manCtr>0){\n            require(findMAN(_address) == 0); //Only one raw material supplier can be added\n        }\n        //require(findMAN(_address) == 0); //Only one manufacturer can be added\n        manCtr++;\n        MAN[manCtr] = manufacturer(_address, manCtr, _name, _place);\n    }\n\n    //To add distributor. Only contract owner can add a new distributor\n    function addDistributor(\n        address _address,\n        string memory _name,\n        string memory _place\n    ) public onlyByOwner() {\n        if(disCtr>0){\n            require(findDIS(_address) == 0); //Only one raw material supplier can be added\n        }\n        //require(findDIS(_address) == 0); //Only one distributor can be added\n        disCtr++;\n        DIS[disCtr] = distributor(_address, disCtr, _name, _place);\n    }\n\n    //To add retailer. Only contract owner can add a new retailer\n    function addRetailer(\n        address _address,\n        string memory _name,\n        string memory _place\n    ) public onlyByOwner() {\n        if(retCtr>0){\n            require(findRET(_address) == 0); //Only one raw material supplier can be added\n        }\n        //require(findRET(_address) == 0); //Only one retailer can be added\n        retCtr++;\n        RET[retCtr] = retailer(_address, retCtr, _name, _place);\n    }\n\n    //To supply raw materials from RMS supplier to the manufacturer\n    function RMSsupply(uint256 _medicineID) public {\n        require(_medicineID > 0 && _medicineID <= medicineCtr);\n        uint256 _id = findRMS(msg.sender);\n        require(_id > 0);\n        require(MedicineStock[_medicineID].stage == STAGE.Init);\n        MedicineStock[_medicineID].RMSid = _id;\n        MedicineStock[_medicineID].stage = STAGE.RawMaterialSupply;\n    }\n\n    //To check if RMS is available in the blockchain\n    function findRMS(address _address) private view returns (uint256) {\n        require(rmsCtr > 0);\n        for (uint256 i = 1; i <= rmsCtr; i++) {\n            if (RMS[i].addr == _address) return RMS[i].id;\n        }\n        return 0;\n    }\n\n    //To manufacture medicine\n    function Manufacturing(uint256 _medicineID) public {\n        require(_medicineID > 0 && _medicineID <= medicineCtr);\n        uint256 _id = findMAN(msg.sender);\n        require(_id > 0);\n        require(MedicineStock[_medicineID].stage == STAGE.RawMaterialSupply);\n        MedicineStock[_medicineID].MANid = _id;\n        MedicineStock[_medicineID].stage = STAGE.Manufacture;\n    }\n\n    //To check if Manufacturer is available in the blockchain\n    function findMAN(address _address) private view returns (uint256) {\n        require(manCtr > 0);\n        for (uint256 i = 1; i <= manCtr; i++) {\n            if (MAN[i].addr == _address) return MAN[i].id;\n        }\n        return 0;\n    }\n\n    //To supply medicines from Manufacturer to distributor\n    function Distribute(uint256 _medicineID) public {\n        require(_medicineID > 0 && _medicineID <= medicineCtr);\n        uint256 _id = findDIS(msg.sender);\n        require(_id > 0);\n        require(MedicineStock[_medicineID].stage == STAGE.Manufacture);\n        MedicineStock[_medicineID].DISid = _id;\n        MedicineStock[_medicineID].stage = STAGE.Distribution;\n    }\n\n    //To check if distributor is available in the blockchain\n    function findDIS(address _address) private view returns (uint256) {\n        require(disCtr > 0);\n        for (uint256 i = 1; i <= disCtr; i++) {\n            if (DIS[i].addr == _address) return DIS[i].id;\n        }\n        return 0;\n    }\n\n    //To supply medicines from distributor to retailer\n    function Retail(uint256 _medicineID) public {\n        require(_medicineID > 0 && _medicineID <= medicineCtr);\n        uint256 _id = findRET(msg.sender);\n        require(_id > 0);\n        require(MedicineStock[_medicineID].stage == STAGE.Distribution);\n        MedicineStock[_medicineID].RETid = _id;\n        MedicineStock[_medicineID].stage = STAGE.Retail;\n    }\n\n    //To check if retailer is available in the blockchain\n    function findRET(address _address) private view returns (uint256) {\n        require(retCtr > 0);\n        for (uint256 i = 1; i <= retCtr; i++) {\n            if (RET[i].addr == _address) return RET[i].id;\n        }\n        return 0;\n    }\n\n    //To sell medicines from retailer to consumer\n    function sold(uint256 _medicineID) public {\n        require(_medicineID > 0 && _medicineID <= medicineCtr);\n        uint256 _id = findRET(msg.sender);\n        require(_id > 0);\n        require(_id == MedicineStock[_medicineID].RETid); //Only correct retailer can mark medicine as sold\n        require(MedicineStock[_medicineID].stage == STAGE.Retail);\n        MedicineStock[_medicineID].stage = STAGE.sold;\n    }\n\n    // To add new medicines to the stock\n    function addMedicine(string memory _name, string memory _description)\n        public\n        onlyByOwner()\n    {\n        require((rmsCtr > 0) && (manCtr > 0) && (disCtr > 0) && (retCtr > 0));\n        medicineCtr++;\n        MedicineStock[medicineCtr] = medicine(\n            medicineCtr,\n            _name,\n            _description,\n            0,\n            0,\n            0,\n            0,\n            STAGE.Init\n        );\n    }\n}\n",
  "sourcePath": "D:\\PPP\\supply-chain-truffle-react-main\\supply-chain-truffle-react-main\\contracts\\SupplyChain.sol",
  "compiler": {
    "name": "solc",
    "version": "0.5.16+commit.9c3226ce.Emscripten.clang"
  },
  "schemaVersion": "3.4.16",
  "updatedAt": "2025-01-05T10:07:33.689Z",
  "networkType": "ethereum",
  "devdoc": {
    "methods": {}
  },
  "userdoc": {
    "methods": {}
  }
}